{
  "_format": "hh-sol-artifact-1",
  "contractName": "NftMarketPlace",
  "sourceName": "contracts/NftMarketPlace.sol",
  "abi": [
    {
      "inputs": [],
      "stateMutability": "nonpayable",
      "type": "constructor"
    },
    {
      "anonymous": false,
      "inputs": [
        {
          "indexed": true,
          "internalType": "address",
          "name": "owner",
          "type": "address"
        },
        {
          "indexed": true,
          "internalType": "address",
          "name": "approved",
          "type": "address"
        },
        {
          "indexed": true,
          "internalType": "uint256",
          "name": "tokenId",
          "type": "uint256"
        }
      ],
      "name": "Approval",
      "type": "event"
    },
    {
      "anonymous": false,
      "inputs": [
        {
          "indexed": true,
          "internalType": "address",
          "name": "owner",
          "type": "address"
        },
        {
          "indexed": true,
          "internalType": "address",
          "name": "operator",
          "type": "address"
        },
        {
          "indexed": false,
          "internalType": "bool",
          "name": "approved",
          "type": "bool"
        }
      ],
      "name": "ApprovalForAll",
      "type": "event"
    },
    {
      "anonymous": false,
      "inputs": [
        {
          "indexed": false,
          "internalType": "uint256",
          "name": "_fromTokenId",
          "type": "uint256"
        },
        {
          "indexed": false,
          "internalType": "uint256",
          "name": "_toTokenId",
          "type": "uint256"
        }
      ],
      "name": "BatchMetadataUpdate",
      "type": "event"
    },
    {
      "anonymous": false,
      "inputs": [
        {
          "indexed": true,
          "internalType": "uint256",
          "name": "tokenId",
          "type": "uint256"
        },
        {
          "indexed": false,
          "internalType": "address",
          "name": "seller",
          "type": "address"
        },
        {
          "indexed": false,
          "internalType": "address",
          "name": "owner",
          "type": "address"
        },
        {
          "indexed": false,
          "internalType": "uint256",
          "name": "price",
          "type": "uint256"
        },
        {
          "indexed": false,
          "internalType": "bool",
          "name": "sold",
          "type": "bool"
        }
      ],
      "name": "MarketItenCreated",
      "type": "event"
    },
    {
      "anonymous": false,
      "inputs": [
        {
          "indexed": false,
          "internalType": "uint256",
          "name": "_tokenId",
          "type": "uint256"
        }
      ],
      "name": "MetadataUpdate",
      "type": "event"
    },
    {
      "anonymous": false,
      "inputs": [
        {
          "indexed": true,
          "internalType": "address",
          "name": "from",
          "type": "address"
        },
        {
          "indexed": true,
          "internalType": "address",
          "name": "to",
          "type": "address"
        },
        {
          "indexed": true,
          "internalType": "uint256",
          "name": "tokenId",
          "type": "uint256"
        }
      ],
      "name": "Transfer",
      "type": "event"
    },
    {
      "inputs": [
        {
          "internalType": "address",
          "name": "to",
          "type": "address"
        },
        {
          "internalType": "uint256",
          "name": "tokenId",
          "type": "uint256"
        }
      ],
      "name": "approve",
      "outputs": [],
      "stateMutability": "nonpayable",
      "type": "function"
    },
    {
      "inputs": [
        {
          "internalType": "address",
          "name": "owner",
          "type": "address"
        }
      ],
      "name": "balanceOf",
      "outputs": [
        {
          "internalType": "uint256",
          "name": "",
          "type": "uint256"
        }
      ],
      "stateMutability": "view",
      "type": "function"
    },
    {
      "inputs": [
        {
          "internalType": "uint256",
          "name": "tokenId",
          "type": "uint256"
        }
      ],
      "name": "createMarketSale",
      "outputs": [],
      "stateMutability": "payable",
      "type": "function"
    },
    {
      "inputs": [
        {
          "internalType": "string",
          "name": "_tokenURI",
          "type": "string"
        },
        {
          "internalType": "uint256",
          "name": "price",
          "type": "uint256"
        }
      ],
      "name": "createToken",
      "outputs": [
        {
          "internalType": "uint256",
          "name": "",
          "type": "uint256"
        }
      ],
      "stateMutability": "payable",
      "type": "function"
    },
    {
      "inputs": [],
      "name": "fetchItemsListed",
      "outputs": [
        {
          "components": [
            {
              "internalType": "uint256",
              "name": "tokenId",
              "type": "uint256"
            },
            {
              "internalType": "address payable",
              "name": "seller",
              "type": "address"
            },
            {
              "internalType": "address payable",
              "name": "owner",
              "type": "address"
            },
            {
              "internalType": "uint256",
              "name": "price",
              "type": "uint256"
            },
            {
              "internalType": "bool",
              "name": "sold",
              "type": "bool"
            }
          ],
          "internalType": "struct NftMarketPlace.MarketItem[]",
          "name": "",
          "type": "tuple[]"
        }
      ],
      "stateMutability": "view",
      "type": "function"
    },
    {
      "inputs": [],
      "name": "fetchMarketItems",
      "outputs": [
        {
          "components": [
            {
              "internalType": "uint256",
              "name": "tokenId",
              "type": "uint256"
            },
            {
              "internalType": "address payable",
              "name": "seller",
              "type": "address"
            },
            {
              "internalType": "address payable",
              "name": "owner",
              "type": "address"
            },
            {
              "internalType": "uint256",
              "name": "price",
              "type": "uint256"
            },
            {
              "internalType": "bool",
              "name": "sold",
              "type": "bool"
            }
          ],
          "internalType": "struct NftMarketPlace.MarketItem[]",
          "name": "",
          "type": "tuple[]"
        }
      ],
      "stateMutability": "view",
      "type": "function"
    },
    {
      "inputs": [],
      "name": "fetchMyNfts",
      "outputs": [
        {
          "components": [
            {
              "internalType": "uint256",
              "name": "tokenId",
              "type": "uint256"
            },
            {
              "internalType": "address payable",
              "name": "seller",
              "type": "address"
            },
            {
              "internalType": "address payable",
              "name": "owner",
              "type": "address"
            },
            {
              "internalType": "uint256",
              "name": "price",
              "type": "uint256"
            },
            {
              "internalType": "bool",
              "name": "sold",
              "type": "bool"
            }
          ],
          "internalType": "struct NftMarketPlace.MarketItem[]",
          "name": "",
          "type": "tuple[]"
        }
      ],
      "stateMutability": "view",
      "type": "function"
    },
    {
      "inputs": [
        {
          "internalType": "uint256",
          "name": "tokenId",
          "type": "uint256"
        }
      ],
      "name": "getApproved",
      "outputs": [
        {
          "internalType": "address",
          "name": "",
          "type": "address"
        }
      ],
      "stateMutability": "view",
      "type": "function"
    },
    {
      "inputs": [],
      "name": "getListingPrice",
      "outputs": [
        {
          "internalType": "uint256",
          "name": "",
          "type": "uint256"
        }
      ],
      "stateMutability": "view",
      "type": "function"
    },
    {
      "inputs": [
        {
          "internalType": "address",
          "name": "owner",
          "type": "address"
        },
        {
          "internalType": "address",
          "name": "operator",
          "type": "address"
        }
      ],
      "name": "isApprovedForAll",
      "outputs": [
        {
          "internalType": "bool",
          "name": "",
          "type": "bool"
        }
      ],
      "stateMutability": "view",
      "type": "function"
    },
    {
      "inputs": [],
      "name": "name",
      "outputs": [
        {
          "internalType": "string",
          "name": "",
          "type": "string"
        }
      ],
      "stateMutability": "view",
      "type": "function"
    },
    {
      "inputs": [
        {
          "internalType": "uint256",
          "name": "tokenId",
          "type": "uint256"
        }
      ],
      "name": "ownerOf",
      "outputs": [
        {
          "internalType": "address",
          "name": "",
          "type": "address"
        }
      ],
      "stateMutability": "view",
      "type": "function"
    },
    {
      "inputs": [
        {
          "internalType": "uint256",
          "name": "tokenId",
          "type": "uint256"
        },
        {
          "internalType": "uint256",
          "name": "price",
          "type": "uint256"
        }
      ],
      "name": "resellToken",
      "outputs": [],
      "stateMutability": "payable",
      "type": "function"
    },
    {
      "inputs": [
        {
          "internalType": "address",
          "name": "from",
          "type": "address"
        },
        {
          "internalType": "address",
          "name": "to",
          "type": "address"
        },
        {
          "internalType": "uint256",
          "name": "tokenId",
          "type": "uint256"
        }
      ],
      "name": "safeTransferFrom",
      "outputs": [],
      "stateMutability": "nonpayable",
      "type": "function"
    },
    {
      "inputs": [
        {
          "internalType": "address",
          "name": "from",
          "type": "address"
        },
        {
          "internalType": "address",
          "name": "to",
          "type": "address"
        },
        {
          "internalType": "uint256",
          "name": "tokenId",
          "type": "uint256"
        },
        {
          "internalType": "bytes",
          "name": "data",
          "type": "bytes"
        }
      ],
      "name": "safeTransferFrom",
      "outputs": [],
      "stateMutability": "nonpayable",
      "type": "function"
    },
    {
      "inputs": [
        {
          "internalType": "address",
          "name": "operator",
          "type": "address"
        },
        {
          "internalType": "bool",
          "name": "approved",
          "type": "bool"
        }
      ],
      "name": "setApprovalForAll",
      "outputs": [],
      "stateMutability": "nonpayable",
      "type": "function"
    },
    {
      "inputs": [
        {
          "internalType": "bytes4",
          "name": "interfaceId",
          "type": "bytes4"
        }
      ],
      "name": "supportsInterface",
      "outputs": [
        {
          "internalType": "bool",
          "name": "",
          "type": "bool"
        }
      ],
      "stateMutability": "view",
      "type": "function"
    },
    {
      "inputs": [],
      "name": "symbol",
      "outputs": [
        {
          "internalType": "string",
          "name": "",
          "type": "string"
        }
      ],
      "stateMutability": "view",
      "type": "function"
    },
    {
      "inputs": [
        {
          "internalType": "uint256",
          "name": "tokenId",
          "type": "uint256"
        }
      ],
      "name": "tokenURI",
      "outputs": [
        {
          "internalType": "string",
          "name": "",
          "type": "string"
        }
      ],
      "stateMutability": "view",
      "type": "function"
    },
    {
      "inputs": [
        {
          "internalType": "address",
          "name": "from",
          "type": "address"
        },
        {
          "internalType": "address",
          "name": "to",
          "type": "address"
        },
        {
          "internalType": "uint256",
          "name": "tokenId",
          "type": "uint256"
        }
      ],
      "name": "transferFrom",
      "outputs": [],
      "stateMutability": "nonpayable",
      "type": "function"
    },
    {
      "inputs": [
        {
          "internalType": "uint256",
          "name": "_listingPrice",
          "type": "uint256"
        }
      ],
      "name": "updateListingPrice",
      "outputs": [],
      "stateMutability": "payable",
      "type": "function"
    }
  ],
  "bytecode": "0x608060405266038d7ea4c680006009553480156200001c57600080fd5b506040518060400160405280601081526020017f4d657461766572736520546f6b656e73000000000000000000000000000000008152506040518060400160405280600481526020017f4d4554540000000000000000000000000000000000000000000000000000000081525081600090816200009a919062000370565b508060019081620000ac919062000370565b50505033600a60006101000a81548173ffffffffffffffffffffffffffffffffffffffff021916908373ffffffffffffffffffffffffffffffffffffffff16021790555062000457565b600081519050919050565b7f4e487b7100000000000000000000000000000000000000000000000000000000600052604160045260246000fd5b7f4e487b7100000000000000000000000000000000000000000000000000000000600052602260045260246000fd5b600060028204905060018216806200017857607f821691505b6020821081036200018e576200018d62000130565b5b50919050565b60008190508160005260206000209050919050565b60006020601f8301049050919050565b600082821b905092915050565b600060088302620001f87fffffffffffffffffffffffffffffffffffffffffffffffffffffffffffffffff82620001b9565b620002048683620001b9565b95508019841693508086168417925050509392505050565b6000819050919050565b6000819050919050565b6000620002516200024b62000245846200021c565b62000226565b6200021c565b9050919050565b6000819050919050565b6200026d8362000230565b620002856200027c8262000258565b848454620001c6565b825550505050565b600090565b6200029c6200028d565b620002a981848462000262565b505050565b5b81811015620002d157620002c560008262000292565b600181019050620002af565b5050565b601f8211156200032057620002ea8162000194565b620002f584620001a9565b8101602085101562000305578190505b6200031d6200031485620001a9565b830182620002ae565b50505b505050565b600082821c905092915050565b6000620003456000198460080262000325565b1980831691505092915050565b600062000360838362000332565b9150826002028217905092915050565b6200037b82620000f6565b67ffffffffffffffff81111562000397576200039662000101565b5b620003a382546200015f565b620003b0828285620002d5565b600060209050601f831160018114620003e85760008415620003d3578287015190505b620003df858262000352565b8655506200044f565b601f198416620003f88662000194565b60005b828110156200042257848901518255600182019150602085019450602081019050620003fb565b868310156200044257848901516200043e601f89168262000332565b8355505b6001600288020188555050505b505050505050565b61430e80620004676000396000f3fe60806040526004361061012a5760003560e01c80636352211e116100ab578063ae677aa31161006f578063ae677aa3146103f9578063b88d4fde14610415578063be9af5361461043e578063c87b56dd1461045a578063e219fc7514610497578063e985e9c5146104b35761012a565b80636352211e146102fb57806370a082311461033857806372b3b6201461037557806395d89b41146103a5578063a22cb465146103d05761012a565b8063128ae712116100f2578063128ae7121461022857806312e855851461025357806323b872dd1461027e57806342842e0e146102a757806345f8fa80146102d05761012a565b806301ffc9a71461012f57806306fdde031461016c578063081812fc14610197578063095ea7b3146101d45780630f08efe0146101fd575b600080fd5b34801561013b57600080fd5b5061015660048036038101906101519190612b8c565b6104f0565b6040516101639190612bd4565b60405180910390f35b34801561017857600080fd5b50610181610551565b60405161018e9190612c7f565b60405180910390f35b3480156101a357600080fd5b506101be60048036038101906101b99190612cd7565b6105e3565b6040516101cb9190612d45565b60405180910390f35b3480156101e057600080fd5b506101fb60048036038101906101f69190612d8c565b610629565b005b34801561020957600080fd5b50610212610740565b60405161021f9190612f22565b60405180910390f35b34801561023457600080fd5b5061023d61099f565b60405161024a9190612f22565b60405180910390f35b34801561025f57600080fd5b50610268610c8b565b6040516102759190612f53565b60405180910390f35b34801561028a57600080fd5b506102a560048036038101906102a09190612f6e565b610c95565b005b3480156102b357600080fd5b506102ce60048036038101906102c99190612f6e565b610cf5565b005b3480156102dc57600080fd5b506102e5610d15565b6040516102f29190612f22565b60405180910390f35b34801561030757600080fd5b50610322600480360381019061031d9190612cd7565b611001565b60405161032f9190612d45565b60405180910390f35b34801561034457600080fd5b5061035f600480360381019061035a9190612fc1565b611087565b60405161036c9190612f53565b60405180910390f35b61038f600480360381019061038a9190613123565b61113e565b60405161039c9190612f53565b60405180910390f35b3480156103b157600080fd5b506103ba611180565b6040516103c79190612c7f565b60405180910390f35b3480156103dc57600080fd5b506103f760048036038101906103f291906131ab565b611212565b005b610413600480360381019061040e9190612cd7565b611228565b005b34801561042157600080fd5b5061043c6004803603810190610437919061328c565b6112c2565b005b61045860048036038101906104539190612cd7565b611324565b005b34801561046657600080fd5b50610481600480360381019061047c9190612cd7565b611562565b60405161048e9190612c7f565b60405180910390f35b6104b160048036038101906104ac919061330f565b611674565b005b3480156104bf57600080fd5b506104da60048036038101906104d5919061334f565b611869565b6040516104e79190612bd4565b60405180910390f35b6000634906490660e01b7bffffffffffffffffffffffffffffffffffffffffffffffffffffffff1916827bffffffffffffffffffffffffffffffffffffffffffffffffffffffff1916148061054a5750610549826118fd565b5b9050919050565b606060008054610560906133be565b80601f016020809104026020016040519081016040528092919081815260200182805461058c906133be565b80156105d95780601f106105ae576101008083540402835291602001916105d9565b820191906000526020600020905b8154815290600101906020018083116105bc57829003601f168201915b5050505050905090565b60006105ee826119df565b6004600083815260200190815260200160002060009054906101000a900473ffffffffffffffffffffffffffffffffffffffff169050919050565b600061063482611001565b90508073ffffffffffffffffffffffffffffffffffffffff168373ffffffffffffffffffffffffffffffffffffffff16036106a4576040517f08c379a000000000000000000000000000000000000000000000000000000000815260040161069b90613461565b60405180910390fd5b8073ffffffffffffffffffffffffffffffffffffffff166106c3611a2a565b73ffffffffffffffffffffffffffffffffffffffff1614806106f257506106f1816106ec611a2a565b611869565b5b610731576040517f08c379a0000000000000000000000000000000000000000000000000000000008152600401610728906134f3565b60405180910390fd5b61073b8383611a32565b505050565b6060600061074e6007611aeb565b9050600061075c6008611aeb565b826107679190613542565b90506000808267ffffffffffffffff81111561078657610785612ff8565b5b6040519080825280602002602001820160405280156107bf57816020015b6107ac612ac3565b8152602001906001900390816107a45790505b50905060005b84811015610994573073ffffffffffffffffffffffffffffffffffffffff16600b60006001846107f59190613576565b815260200190815260200160002060020160009054906101000a900473ffffffffffffffffffffffffffffffffffffffff1673ffffffffffffffffffffffffffffffffffffffff16036109815760006001826108519190613576565b90506000600b60008381526020019081526020016000209050806040518060a0016040529081600082015481526020016001820160009054906101000a900473ffffffffffffffffffffffffffffffffffffffff1673ffffffffffffffffffffffffffffffffffffffff1673ffffffffffffffffffffffffffffffffffffffff1681526020016002820160009054906101000a900473ffffffffffffffffffffffffffffffffffffffff1673ffffffffffffffffffffffffffffffffffffffff1673ffffffffffffffffffffffffffffffffffffffff168152602001600382015481526020016004820160009054906101000a900460ff161515151581525050848681518110610964576109636135aa565b5b602002602001018190525060018561097c9190613576565b945050505b808061098c906135d9565b9150506107c5565b508094505050505090565b606060006109ad6007611aeb565b905060008060005b83811015610a55573373ffffffffffffffffffffffffffffffffffffffff16600b60006001846109e59190613576565b815260200190815260200160002060020160009054906101000a900473ffffffffffffffffffffffffffffffffffffffff1673ffffffffffffffffffffffffffffffffffffffff1603610a4257600183610a3f9190613576565b92505b8080610a4d906135d9565b9150506109b5565b5060008267ffffffffffffffff811115610a7257610a71612ff8565b5b604051908082528060200260200182016040528015610aab57816020015b610a98612ac3565b815260200190600190039081610a905790505b50905060005b84811015610c80573373ffffffffffffffffffffffffffffffffffffffff16600b6000600184610ae19190613576565b815260200190815260200160002060020160009054906101000a900473ffffffffffffffffffffffffffffffffffffffff1673ffffffffffffffffffffffffffffffffffffffff1603610c6d576000600182610b3d9190613576565b90506000600b60008381526020019081526020016000209050806040518060a0016040529081600082015481526020016001820160009054906101000a900473ffffffffffffffffffffffffffffffffffffffff1673ffffffffffffffffffffffffffffffffffffffff1673ffffffffffffffffffffffffffffffffffffffff1681526020016002820160009054906101000a900473ffffffffffffffffffffffffffffffffffffffff1673ffffffffffffffffffffffffffffffffffffffff1673ffffffffffffffffffffffffffffffffffffffff168152602001600382015481526020016004820160009054906101000a900460ff161515151581525050848681518110610c5057610c4f6135aa565b5b6020026020010181905250600185610c689190613576565b945050505b8080610c78906135d9565b915050610ab1565b508094505050505090565b6000600954905090565b610ca6610ca0611a2a565b82611af9565b610ce5576040517f08c379a0000000000000000000000000000000000000000000000000000000008152600401610cdc90613693565b60405180910390fd5b610cf0838383611b8e565b505050565b610d10838383604051806020016040528060008152506112c2565b505050565b60606000610d236007611aeb565b905060008060005b83811015610dcb573373ffffffffffffffffffffffffffffffffffffffff16600b6000600184610d5b9190613576565b815260200190815260200160002060010160009054906101000a900473ffffffffffffffffffffffffffffffffffffffff1673ffffffffffffffffffffffffffffffffffffffff1603610db857600183610db59190613576565b92505b8080610dc3906135d9565b915050610d2b565b5060008267ffffffffffffffff811115610de857610de7612ff8565b5b604051908082528060200260200182016040528015610e2157816020015b610e0e612ac3565b815260200190600190039081610e065790505b50905060005b84811015610ff6573373ffffffffffffffffffffffffffffffffffffffff16600b6000600184610e579190613576565b815260200190815260200160002060010160009054906101000a900473ffffffffffffffffffffffffffffffffffffffff1673ffffffffffffffffffffffffffffffffffffffff1603610fe3576000600182610eb39190613576565b90506000600b60008381526020019081526020016000209050806040518060a0016040529081600082015481526020016001820160009054906101000a900473ffffffffffffffffffffffffffffffffffffffff1673ffffffffffffffffffffffffffffffffffffffff1673ffffffffffffffffffffffffffffffffffffffff1681526020016002820160009054906101000a900473ffffffffffffffffffffffffffffffffffffffff1673ffffffffffffffffffffffffffffffffffffffff1673ffffffffffffffffffffffffffffffffffffffff168152602001600382015481526020016004820160009054906101000a900460ff161515151581525050848681518110610fc657610fc56135aa565b5b6020026020010181905250600185610fde9190613576565b945050505b8080610fee906135d9565b915050610e27565b508094505050505090565b60008061100d83611e87565b9050600073ffffffffffffffffffffffffffffffffffffffff168173ffffffffffffffffffffffffffffffffffffffff160361107e576040517f08c379a0000000000000000000000000000000000000000000000000000000008152600401611075906136ff565b60405180910390fd5b80915050919050565b60008073ffffffffffffffffffffffffffffffffffffffff168273ffffffffffffffffffffffffffffffffffffffff16036110f7576040517f08c379a00000000000000000000000000000000000000000000000000000000081526004016110ee90613791565b60405180910390fd5b600360008373ffffffffffffffffffffffffffffffffffffffff1673ffffffffffffffffffffffffffffffffffffffff168152602001908152602001600020549050919050565b600061114a6007611ec4565b60006111566007611aeb565b90506111623382611eda565b61116c81856120f7565b611176818461219b565b8091505092915050565b60606001805461118f906133be565b80601f01602080910402602001604051908101604052809291908181526020018280546111bb906133be565b80156112085780601f106111dd57610100808354040283529160200191611208565b820191906000526020600020905b8154815290600101906020018083116111eb57829003601f168201915b5050505050905090565b61122461121d611a2a565b838361239e565b5050565b3373ffffffffffffffffffffffffffffffffffffffff16600a60009054906101000a900473ffffffffffffffffffffffffffffffffffffffff1673ffffffffffffffffffffffffffffffffffffffff16146112b8576040517f08c379a00000000000000000000000000000000000000000000000000000000081526004016112af90613823565b60405180910390fd5b8060098190555050565b6112d36112cd611a2a565b83611af9565b611312576040517f08c379a000000000000000000000000000000000000000000000000000000000815260040161130990613693565b60405180910390fd5b61131e8484848461250a565b50505050565b6000600b60008381526020019081526020016000206003015490506000600b600084815260200190815260200160002060010160009054906101000a900473ffffffffffffffffffffffffffffffffffffffff1690503482146113bc576040517f08c379a00000000000000000000000000000000000000000000000000000000081526004016113b39061388f565b60405180910390fd5b33600b600085815260200190815260200160002060020160006101000a81548173ffffffffffffffffffffffffffffffffffffffff021916908373ffffffffffffffffffffffffffffffffffffffff1602179055506001600b600085815260200190815260200160002060040160006101000a81548160ff0219169083151502179055506000600b600085815260200190815260200160002060010160006101000a81548173ffffffffffffffffffffffffffffffffffffffff021916908373ffffffffffffffffffffffffffffffffffffffff1602179055506114a06008611ec4565b6114ab303385611b8e565b600a60009054906101000a900473ffffffffffffffffffffffffffffffffffffffff1673ffffffffffffffffffffffffffffffffffffffff166108fc6009549081150290604051600060405180830381858888f19350505050158015611515573d6000803e3d6000fd5b508073ffffffffffffffffffffffffffffffffffffffff166108fc839081150290604051600060405180830381858888f1935050505015801561155c573d6000803e3d6000fd5b50505050565b606061156d826119df565b600060066000848152602001908152602001600020805461158d906133be565b80601f01602080910402602001604051908101604052809291908181526020018280546115b9906133be565b80156116065780601f106115db57610100808354040283529160200191611606565b820191906000526020600020905b8154815290600101906020018083116115e957829003601f168201915b505050505090506000611617612566565b9050600081510361162c57819250505061166f565b6000825111156116615780826040516020016116499291906138eb565b6040516020818303038152906040529250505061166f565b61166a8461257d565b925050505b919050565b3373ffffffffffffffffffffffffffffffffffffffff16600b600084815260200190815260200160002060020160009054906101000a900473ffffffffffffffffffffffffffffffffffffffff1673ffffffffffffffffffffffffffffffffffffffff1614611718576040517f08c379a000000000000000000000000000000000000000000000000000000000815260040161170f90613981565b60405180910390fd5b600954341461175c576040517f08c379a0000000000000000000000000000000000000000000000000000000008152600401611753906139ed565b60405180910390fd5b33600b600084815260200190815260200160002060010160006101000a81548173ffffffffffffffffffffffffffffffffffffffff021916908373ffffffffffffffffffffffffffffffffffffffff16021790555080600b60008481526020019081526020016000206003018190555030600b600084815260200190815260200160002060020160006101000a81548173ffffffffffffffffffffffffffffffffffffffff021916908373ffffffffffffffffffffffffffffffffffffffff1602179055506000600b600084815260200190815260200160002060040160006101000a81548160ff02191690831515021790555061185a60086125e5565b611865333084611b8e565b5050565b6000600560008473ffffffffffffffffffffffffffffffffffffffff1673ffffffffffffffffffffffffffffffffffffffff16815260200190815260200160002060008373ffffffffffffffffffffffffffffffffffffffff1673ffffffffffffffffffffffffffffffffffffffff16815260200190815260200160002060009054906101000a900460ff16905092915050565b60007f80ac58cd000000000000000000000000000000000000000000000000000000007bffffffffffffffffffffffffffffffffffffffffffffffffffffffff1916827bffffffffffffffffffffffffffffffffffffffffffffffffffffffff191614806119c857507f5b5e139f000000000000000000000000000000000000000000000000000000007bffffffffffffffffffffffffffffffffffffffffffffffffffffffff1916827bffffffffffffffffffffffffffffffffffffffffffffffffffffffff1916145b806119d857506119d782612641565b5b9050919050565b6119e8816126ab565b611a27576040517f08c379a0000000000000000000000000000000000000000000000000000000008152600401611a1e906136ff565b60405180910390fd5b50565b600033905090565b816004600083815260200190815260200160002060006101000a81548173ffffffffffffffffffffffffffffffffffffffff021916908373ffffffffffffffffffffffffffffffffffffffff160217905550808273ffffffffffffffffffffffffffffffffffffffff16611aa583611001565b73ffffffffffffffffffffffffffffffffffffffff167f8c5be1e5ebec7d5bd14f71427d1e84f3dd0314c0f7b2291e5b200ac8c7c3b92560405160405180910390a45050565b600081600001549050919050565b600080611b0583611001565b90508073ffffffffffffffffffffffffffffffffffffffff168473ffffffffffffffffffffffffffffffffffffffff161480611b475750611b468185611869565b5b80611b8557508373ffffffffffffffffffffffffffffffffffffffff16611b6d846105e3565b73ffffffffffffffffffffffffffffffffffffffff16145b91505092915050565b8273ffffffffffffffffffffffffffffffffffffffff16611bae82611001565b73ffffffffffffffffffffffffffffffffffffffff1614611c04576040517f08c379a0000000000000000000000000000000000000000000000000000000008152600401611bfb90613a7f565b60405180910390fd5b600073ffffffffffffffffffffffffffffffffffffffff168273ffffffffffffffffffffffffffffffffffffffff1603611c73576040517f08c379a0000000000000000000000000000000000000000000000000000000008152600401611c6a90613b11565b60405180910390fd5b611c8083838360016126ec565b8273ffffffffffffffffffffffffffffffffffffffff16611ca082611001565b73ffffffffffffffffffffffffffffffffffffffff1614611cf6576040517f08c379a0000000000000000000000000000000000000000000000000000000008152600401611ced90613a7f565b60405180910390fd5b6004600082815260200190815260200160002060006101000a81549073ffffffffffffffffffffffffffffffffffffffff02191690556001600360008573ffffffffffffffffffffffffffffffffffffffff1673ffffffffffffffffffffffffffffffffffffffff168152602001908152602001600020600082825403925050819055506001600360008473ffffffffffffffffffffffffffffffffffffffff1673ffffffffffffffffffffffffffffffffffffffff16815260200190815260200160002060008282540192505081905550816002600083815260200190815260200160002060006101000a81548173ffffffffffffffffffffffffffffffffffffffff021916908373ffffffffffffffffffffffffffffffffffffffff160217905550808273ffffffffffffffffffffffffffffffffffffffff168473ffffffffffffffffffffffffffffffffffffffff167fddf252ad1be2c89b69c2b068fc378daa952ba7f163c4a11628f55a4df523b3ef60405160405180910390a4611e8283838360016126f2565b505050565b60006002600083815260200190815260200160002060009054906101000a900473ffffffffffffffffffffffffffffffffffffffff169050919050565b6001816000016000828254019250508190555050565b600073ffffffffffffffffffffffffffffffffffffffff168273ffffffffffffffffffffffffffffffffffffffff1603611f49576040517f08c379a0000000000000000000000000000000000000000000000000000000008152600401611f4090613b7d565b60405180910390fd5b611f52816126ab565b15611f92576040517f08c379a0000000000000000000000000000000000000000000000000000000008152600401611f8990613be9565b60405180910390fd5b611fa06000838360016126ec565b611fa9816126ab565b15611fe9576040517f08c379a0000000000000000000000000000000000000000000000000000000008152600401611fe090613be9565b60405180910390fd5b6001600360008473ffffffffffffffffffffffffffffffffffffffff1673ffffffffffffffffffffffffffffffffffffffff16815260200190815260200160002060008282540192505081905550816002600083815260200190815260200160002060006101000a81548173ffffffffffffffffffffffffffffffffffffffff021916908373ffffffffffffffffffffffffffffffffffffffff160217905550808273ffffffffffffffffffffffffffffffffffffffff16600073ffffffffffffffffffffffffffffffffffffffff167fddf252ad1be2c89b69c2b068fc378daa952ba7f163c4a11628f55a4df523b3ef60405160405180910390a46120f36000838360016126f2565b5050565b612100826126ab565b61213f576040517f08c379a000000000000000000000000000000000000000000000000000000000815260040161213690613c7b565b60405180910390fd5b8060066000848152602001908152602001600020908161215f9190613e47565b507ff8e1a15aba9398e019f0b49df1a4fde98ee17ae345cb5f6b5e2c27f5033e8ce78260405161218f9190612f53565b60405180910390a15050565b600081116121de576040517f08c379a00000000000000000000000000000000000000000000000000000000081526004016121d590613f65565b60405180910390fd5b6009543414612222576040517f08c379a000000000000000000000000000000000000000000000000000000000815260040161221990613ff7565b60405180910390fd5b6040518060a001604052808381526020013373ffffffffffffffffffffffffffffffffffffffff1681526020013073ffffffffffffffffffffffffffffffffffffffff16815260200182815260200160001515815250600b60008481526020019081526020016000206000820151816000015560208201518160010160006101000a81548173ffffffffffffffffffffffffffffffffffffffff021916908373ffffffffffffffffffffffffffffffffffffffff16021790555060408201518160020160006101000a81548173ffffffffffffffffffffffffffffffffffffffff021916908373ffffffffffffffffffffffffffffffffffffffff1602179055506060820151816003015560808201518160040160006101000a81548160ff02191690831515021790555090505061235b333084611b8e565b817f23a5574f8fcb4584b2aa2af98e97bf9480a541d841909c7031e9b25b96efd1cc33308460006040516123929493929190614017565b60405180910390a25050565b8173ffffffffffffffffffffffffffffffffffffffff168373ffffffffffffffffffffffffffffffffffffffff160361240c576040517f08c379a0000000000000000000000000000000000000000000000000000000008152600401612403906140a8565b60405180910390fd5b80600560008573ffffffffffffffffffffffffffffffffffffffff1673ffffffffffffffffffffffffffffffffffffffff16815260200190815260200160002060008473ffffffffffffffffffffffffffffffffffffffff1673ffffffffffffffffffffffffffffffffffffffff16815260200190815260200160002060006101000a81548160ff0219169083151502179055508173ffffffffffffffffffffffffffffffffffffffff168373ffffffffffffffffffffffffffffffffffffffff167f17307eab39ab6107e8899845ad3d59bd9653f200f220920489ca2b5937696c31836040516124fd9190612bd4565b60405180910390a3505050565b612515848484611b8e565b612521848484846126f8565b612560576040517f08c379a00000000000000000000000000000000000000000000000000000000081526004016125579061413a565b60405180910390fd5b50505050565b606060405180602001604052806000815250905090565b6060612588826119df565b6000612592612566565b905060008151116125b257604051806020016040528060008152506125dd565b806125bc8461287f565b6040516020016125cd9291906138eb565b6040516020818303038152906040525b915050919050565b60008160000154905060008111612631576040517f08c379a0000000000000000000000000000000000000000000000000000000008152600401612628906141a6565b60405180910390fd5b6001810382600001819055505050565b60007f01ffc9a7000000000000000000000000000000000000000000000000000000007bffffffffffffffffffffffffffffffffffffffffffffffffffffffff1916827bffffffffffffffffffffffffffffffffffffffffffffffffffffffff1916149050919050565b60008073ffffffffffffffffffffffffffffffffffffffff166126cd83611e87565b73ffffffffffffffffffffffffffffffffffffffff1614159050919050565b50505050565b50505050565b60006127198473ffffffffffffffffffffffffffffffffffffffff1661294d565b15612872578373ffffffffffffffffffffffffffffffffffffffff1663150b7a02612742611a2a565b8786866040518563ffffffff1660e01b8152600401612764949392919061421b565b6020604051808303816000875af19250505080156127a057506040513d601f19601f8201168201806040525081019061279d919061427c565b60015b612822573d80600081146127d0576040519150601f19603f3d011682016040523d82523d6000602084013e6127d5565b606091505b50600081510361281a576040517f08c379a00000000000000000000000000000000000000000000000000000000081526004016128119061413a565b60405180910390fd5b805181602001fd5b63150b7a0260e01b7bffffffffffffffffffffffffffffffffffffffffffffffffffffffff1916817bffffffffffffffffffffffffffffffffffffffffffffffffffffffff191614915050612877565b600190505b949350505050565b60606000600161288e84612970565b01905060008167ffffffffffffffff8111156128ad576128ac612ff8565b5b6040519080825280601f01601f1916602001820160405280156128df5781602001600182028036833780820191505090505b509050600082602001820190505b600115612942578080600190039150507f3031323334353637383961626364656600000000000000000000000000000000600a86061a8153600a8581612936576129356142a9565b5b049450600085036128ed575b819350505050919050565b6000808273ffffffffffffffffffffffffffffffffffffffff163b119050919050565b600080600090507a184f03e93ff9f4daa797ed6e38ed64bf6a1f01000000000000000083106129ce577a184f03e93ff9f4daa797ed6e38ed64bf6a1f01000000000000000083816129c4576129c36142a9565b5b0492506040810190505b6d04ee2d6d415b85acef81000000008310612a0b576d04ee2d6d415b85acef81000000008381612a0157612a006142a9565b5b0492506020810190505b662386f26fc100008310612a3a57662386f26fc100008381612a3057612a2f6142a9565b5b0492506010810190505b6305f5e1008310612a63576305f5e1008381612a5957612a586142a9565b5b0492506008810190505b6127108310612a88576127108381612a7e57612a7d6142a9565b5b0492506004810190505b60648310612aab5760648381612aa157612aa06142a9565b5b0492506002810190505b600a8310612aba576001810190505b80915050919050565b6040518060a0016040528060008152602001600073ffffffffffffffffffffffffffffffffffffffff168152602001600073ffffffffffffffffffffffffffffffffffffffff168152602001600081526020016000151581525090565b6000604051905090565b600080fd5b600080fd5b60007fffffffff0000000000000000000000000000000000000000000000000000000082169050919050565b612b6981612b34565b8114612b7457600080fd5b50565b600081359050612b8681612b60565b92915050565b600060208284031215612ba257612ba1612b2a565b5b6000612bb084828501612b77565b91505092915050565b60008115159050919050565b612bce81612bb9565b82525050565b6000602082019050612be96000830184612bc5565b92915050565b600081519050919050565b600082825260208201905092915050565b60005b83811015612c29578082015181840152602081019050612c0e565b60008484015250505050565b6000601f19601f8301169050919050565b6000612c5182612bef565b612c5b8185612bfa565b9350612c6b818560208601612c0b565b612c7481612c35565b840191505092915050565b60006020820190508181036000830152612c998184612c46565b905092915050565b6000819050919050565b612cb481612ca1565b8114612cbf57600080fd5b50565b600081359050612cd181612cab565b92915050565b600060208284031215612ced57612cec612b2a565b5b6000612cfb84828501612cc2565b91505092915050565b600073ffffffffffffffffffffffffffffffffffffffff82169050919050565b6000612d2f82612d04565b9050919050565b612d3f81612d24565b82525050565b6000602082019050612d5a6000830184612d36565b92915050565b612d6981612d24565b8114612d7457600080fd5b50565b600081359050612d8681612d60565b92915050565b60008060408385031215612da357612da2612b2a565b5b6000612db185828601612d77565b9250506020612dc285828601612cc2565b9150509250929050565b600081519050919050565b600082825260208201905092915050565b6000819050602082019050919050565b612e0181612ca1565b82525050565b6000612e1282612d04565b9050919050565b612e2281612e07565b82525050565b612e3181612bb9565b82525050565b60a082016000820151612e4d6000850182612df8565b506020820151612e606020850182612e19565b506040820151612e736040850182612e19565b506060820151612e866060850182612df8565b506080820151612e996080850182612e28565b50505050565b6000612eab8383612e37565b60a08301905092915050565b6000602082019050919050565b6000612ecf82612dcc565b612ed98185612dd7565b9350612ee483612de8565b8060005b83811015612f15578151612efc8882612e9f565b9750612f0783612eb7565b925050600181019050612ee8565b5085935050505092915050565b60006020820190508181036000830152612f3c8184612ec4565b905092915050565b612f4d81612ca1565b82525050565b6000602082019050612f686000830184612f44565b92915050565b600080600060608486031215612f8757612f86612b2a565b5b6000612f9586828701612d77565b9350506020612fa686828701612d77565b9250506040612fb786828701612cc2565b9150509250925092565b600060208284031215612fd757612fd6612b2a565b5b6000612fe584828501612d77565b91505092915050565b600080fd5b600080fd5b7f4e487b7100000000000000000000000000000000000000000000000000000000600052604160045260246000fd5b61303082612c35565b810181811067ffffffffffffffff8211171561304f5761304e612ff8565b5b80604052505050565b6000613062612b20565b905061306e8282613027565b919050565b600067ffffffffffffffff82111561308e5761308d612ff8565b5b61309782612c35565b9050602081019050919050565b82818337600083830152505050565b60006130c66130c184613073565b613058565b9050828152602081018484840111156130e2576130e1612ff3565b5b6130ed8482856130a4565b509392505050565b600082601f83011261310a57613109612fee565b5b813561311a8482602086016130b3565b91505092915050565b6000806040838503121561313a57613139612b2a565b5b600083013567ffffffffffffffff81111561315857613157612b2f565b5b613164858286016130f5565b925050602061317585828601612cc2565b9150509250929050565b61318881612bb9565b811461319357600080fd5b50565b6000813590506131a58161317f565b92915050565b600080604083850312156131c2576131c1612b2a565b5b60006131d085828601612d77565b92505060206131e185828601613196565b9150509250929050565b600067ffffffffffffffff82111561320657613205612ff8565b5b61320f82612c35565b9050602081019050919050565b600061322f61322a846131eb565b613058565b90508281526020810184848401111561324b5761324a612ff3565b5b6132568482856130a4565b509392505050565b600082601f83011261327357613272612fee565b5b813561328384826020860161321c565b91505092915050565b600080600080608085870312156132a6576132a5612b2a565b5b60006132b487828801612d77565b94505060206132c587828801612d77565b93505060406132d687828801612cc2565b925050606085013567ffffffffffffffff8111156132f7576132f6612b2f565b5b6133038782880161325e565b91505092959194509250565b6000806040838503121561332657613325612b2a565b5b600061333485828601612cc2565b925050602061334585828601612cc2565b9150509250929050565b6000806040838503121561336657613365612b2a565b5b600061337485828601612d77565b925050602061338585828601612d77565b9150509250929050565b7f4e487b7100000000000000000000000000000000000000000000000000000000600052602260045260246000fd5b600060028204905060018216806133d657607f821691505b6020821081036133e9576133e861338f565b5b50919050565b7f4552433732313a20617070726f76616c20746f2063757272656e74206f776e6560008201527f7200000000000000000000000000000000000000000000000000000000000000602082015250565b600061344b602183612bfa565b9150613456826133ef565b604082019050919050565b6000602082019050818103600083015261347a8161343e565b9050919050565b7f4552433732313a20617070726f76652063616c6c6572206973206e6f7420746f60008201527f6b656e206f776e6572206f7220617070726f76656420666f7220616c6c000000602082015250565b60006134dd603d83612bfa565b91506134e882613481565b604082019050919050565b6000602082019050818103600083015261350c816134d0565b9050919050565b7f4e487b7100000000000000000000000000000000000000000000000000000000600052601160045260246000fd5b600061354d82612ca1565b915061355883612ca1565b92508282039050818111156135705761356f613513565b5b92915050565b600061358182612ca1565b915061358c83612ca1565b92508282019050808211156135a4576135a3613513565b5b92915050565b7f4e487b7100000000000000000000000000000000000000000000000000000000600052603260045260246000fd5b60006135e482612ca1565b91507fffffffffffffffffffffffffffffffffffffffffffffffffffffffffffffffff820361361657613615613513565b5b600182019050919050565b7f4552433732313a2063616c6c6572206973206e6f7420746f6b656e206f776e6560008201527f72206f7220617070726f76656400000000000000000000000000000000000000602082015250565b600061367d602d83612bfa565b915061368882613621565b604082019050919050565b600060208201905081810360008301526136ac81613670565b9050919050565b7f4552433732313a20696e76616c696420746f6b656e2049440000000000000000600082015250565b60006136e9601883612bfa565b91506136f4826136b3565b602082019050919050565b60006020820190508181036000830152613718816136dc565b9050919050565b7f4552433732313a2061646472657373207a65726f206973206e6f74206120766160008201527f6c6964206f776e65720000000000000000000000000000000000000000000000602082015250565b600061377b602983612bfa565b91506137868261371f565b604082019050919050565b600060208201905081810360008301526137aa8161376e565b9050919050565b7f4f6e6c7920636f6e7472616374206f776e657220697320616c6c6f776564207460008201527f6f2063616c6c20746869732066756e6374696f6e000000000000000000000000602082015250565b600061380d603483612bfa565b9150613818826137b1565b604082019050919050565b6000602082019050818103600083015261383c81613800565b9050919050565b7f506c65617365207375626d6974207468652061736b696e672070726963650000600082015250565b6000613879601e83612bfa565b915061388482613843565b602082019050919050565b600060208201905081810360008301526138a88161386c565b9050919050565b600081905092915050565b60006138c582612bef565b6138cf81856138af565b93506138df818560208601612c0b565b80840191505092915050565b60006138f782856138ba565b915061390382846138ba565b91508190509392505050565b7f4f6e6c7920746865206974656d206f6e65722063616e20706572666f726d207460008201527f686973206f7065726174696f6e00000000000000000000000000000000000000602082015250565b600061396b602d83612bfa565b91506139768261390f565b604082019050919050565b6000602082019050818103600083015261399a8161395e565b9050919050565b7f506c65617365207375626d697420746865206c697374696e6720707269636500600082015250565b60006139d7601f83612bfa565b91506139e2826139a1565b602082019050919050565b60006020820190508181036000830152613a06816139ca565b9050919050565b7f4552433732313a207472616e736665722066726f6d20696e636f72726563742060008201527f6f776e6572000000000000000000000000000000000000000000000000000000602082015250565b6000613a69602583612bfa565b9150613a7482613a0d565b604082019050919050565b60006020820190508181036000830152613a9881613a5c565b9050919050565b7f4552433732313a207472616e7366657220746f20746865207a65726f2061646460008201527f7265737300000000000000000000000000000000000000000000000000000000602082015250565b6000613afb602483612bfa565b9150613b0682613a9f565b604082019050919050565b60006020820190508181036000830152613b2a81613aee565b9050919050565b7f4552433732313a206d696e7420746f20746865207a65726f2061646472657373600082015250565b6000613b67602083612bfa565b9150613b7282613b31565b602082019050919050565b60006020820190508181036000830152613b9681613b5a565b9050919050565b7f4552433732313a20746f6b656e20616c7265616479206d696e74656400000000600082015250565b6000613bd3601c83612bfa565b9150613bde82613b9d565b602082019050919050565b60006020820190508181036000830152613c0281613bc6565b9050919050565b7f45524337323155524953746f726167653a2055524920736574206f66206e6f6e60008201527f6578697374656e7420746f6b656e000000000000000000000000000000000000602082015250565b6000613c65602e83612bfa565b9150613c7082613c09565b604082019050919050565b60006020820190508181036000830152613c9481613c58565b9050919050565b60008190508160005260206000209050919050565b60006020601f8301049050919050565b600082821b905092915050565b600060088302613cfd7fffffffffffffffffffffffffffffffffffffffffffffffffffffffffffffffff82613cc0565b613d078683613cc0565b95508019841693508086168417925050509392505050565b6000819050919050565b6000613d44613d3f613d3a84612ca1565b613d1f565b612ca1565b9050919050565b6000819050919050565b613d5e83613d29565b613d72613d6a82613d4b565b848454613ccd565b825550505050565b600090565b613d87613d7a565b613d92818484613d55565b505050565b5b81811015613db657613dab600082613d7f565b600181019050613d98565b5050565b601f821115613dfb57613dcc81613c9b565b613dd584613cb0565b81016020851015613de4578190505b613df8613df085613cb0565b830182613d97565b50505b505050565b600082821c905092915050565b6000613e1e60001984600802613e00565b1980831691505092915050565b6000613e378383613e0d565b9150826002028217905092915050565b613e5082612bef565b67ffffffffffffffff811115613e6957613e68612ff8565b5b613e7382546133be565b613e7e828285613dba565b600060209050601f831160018114613eb15760008415613e9f578287015190505b613ea98582613e2b565b865550613f11565b601f198416613ebf86613c9b565b60005b82811015613ee757848901518255600182019150602085019450602081019050613ec2565b86831015613f045784890151613f00601f891682613e0d565b8355505b6001600288020188555050505b505050505050565b7f5072696365206d7573742062652061746c656174203120776569000000000000600082015250565b6000613f4f601a83612bfa565b9150613f5a82613f19565b602082019050919050565b60006020820190508181036000830152613f7e81613f42565b9050919050565b7f5072696365206d75737420626520657175616c20746f206c697374696e67207060008201527f7269636500000000000000000000000000000000000000000000000000000000602082015250565b6000613fe1602483612bfa565b9150613fec82613f85565b604082019050919050565b6000602082019050818103600083015261401081613fd4565b9050919050565b600060808201905061402c6000830187612d36565b6140396020830186612d36565b6140466040830185612f44565b6140536060830184612bc5565b95945050505050565b7f4552433732313a20617070726f766520746f2063616c6c657200000000000000600082015250565b6000614092601983612bfa565b915061409d8261405c565b602082019050919050565b600060208201905081810360008301526140c181614085565b9050919050565b7f4552433732313a207472616e7366657220746f206e6f6e20455243373231526560008201527f63656976657220696d706c656d656e7465720000000000000000000000000000602082015250565b6000614124603283612bfa565b915061412f826140c8565b604082019050919050565b6000602082019050818103600083015261415381614117565b9050919050565b7f436f756e7465723a2064656372656d656e74206f766572666c6f770000000000600082015250565b6000614190601b83612bfa565b915061419b8261415a565b602082019050919050565b600060208201905081810360008301526141bf81614183565b9050919050565b600081519050919050565b600082825260208201905092915050565b60006141ed826141c6565b6141f781856141d1565b9350614207818560208601612c0b565b61421081612c35565b840191505092915050565b60006080820190506142306000830187612d36565b61423d6020830186612d36565b61424a6040830185612f44565b818103606083015261425c81846141e2565b905095945050505050565b60008151905061427681612b60565b92915050565b60006020828403121561429257614291612b2a565b5b60006142a084828501614267565b91505092915050565b7f4e487b7100000000000000000000000000000000000000000000000000000000600052601260045260246000fdfea26469706673582212208e1805df907e60d9b65ee106770872fb7b457fd0059446762f7988b2893a036364736f6c63430008130033",
  "linkReferences": {},
  "deployedLinkReferences": {}
}